:020000040800F2
:1000000088060020E5160008ED160008EF16000827
:10001000F1160008F3160008F516000800000000AD
:10002000000000000000000000000000F7160008BB
:10003000F916000800000000FB160008FD16000875
:10004000FF160008FF160008FF160008FF1600083C
:10005000FF160008FF160008FF160008FF1600082C
:10006000FF160008FF160008FF160008FF1600081C
:10007000FF160008FF160008FF160008FF1600080C
:10008000FF160008FF160008FF160008A703000867
:10009000C9030008FF160008FF160008FF16000835
:1000A000FF160008FF160008FF160008FF160008DC
:1000B000FF160008FF160008FF160008FF160008CC
:1000C000FF160008FF160008FF160008FF160008BC
:1000D000FF160008FF160008FF160008FF160008AC
:1000E000FF160008FF160008FF160008FF1600089C
:1000F000FF160008FF160008FF160008FF1600088C
:10010000FF160008FF160008FF160008FF1600087B
:10011000FF160008FF160008FF160008FF1600086B
:10012000FF160008FF160008FF160008FF1600085B
:10013000FF160008FF160008FF160008FF1600084B
:10014000FF160008FF160008FF160008FF1600083B
:10015000FF160008FF160008FF160008FF1600082B
:10016000FF160008FF160008FF160008FF1600081B
:10017000FF160008FF160008FF1600080000000028
:10018000FF160008FF16000800F002F800F03CF827
:100190000AA090E8000C82448344AAF10107DA45E2
:1001A00001D100F031F8AFF2090EBAE80F0013F0F8
:1001B000010F18BFFB1A43F0010318470417000092
:1001C00024170000103A24BF78C878C1FAD8520723
:1001D00024BF30C830C144BF04680C6070470000C1
:1001E0000023002400250026103A28BF78C1FBD840
:1001F000520728BF30C148BF0B6070471FB501F0E0
:100200005AFB1FBD10B510BD01F01FFB1146FFF7D3
:10021000F5FF00F011F801F03DFB03B4FFF7F2FF2A
:1002200003BC01F041FB000001B500BF0098411E76
:1002300000910028FAD108BD88B000F053F80121E0
:10024000042000F003FC4FF4E070069001208DF8CC
:100250001C0000208DF81E0003208DF81D000020DA
:100260008DF81F0006A91C4800F052F932E01A4828
:100270001430006880F040001749143108604FF6D0
:10028000FF70FFF7D1FF0021144800F05DFF044626
:10029000012C04D08021104800F0B6F906E080213E
:1002A0000D4800F0B3F90E48FFF7BEFF4FF4807021
:1002B0000190002002908DF80C008DF80D000120B7
:1002C0008DF80E0042208DF80F0001A9034800F0C0
:1002D000A3FE00BFCBE7000000080240006400401E
:1002E000FFFF0F0010B58AB00121084600F0AEFBF9
:1002F0004FF4C050089002208DF8240000208DF8A3
:10030000260003208DF8250000208DF8270008A97D
:10031000394800F0FDF809220B21374800F083F935
:1003200009220C21344800F07EF9132000F059F81E
:10033000142000F056F80121480600F0D0FB05A873
:1003400000F0FCFD01208DF81D0000208DF8160046
:1003500002208DF8170003208DF8180001208DF879
:1003600019000C20ADF8140005A9244800F0DBFCAE
:1003700001220321214801F05FF805A91F4800F080
:10038000D2FC044601208DF80E008DF80F000020ED
:100390008DF8110001A800F050FD0121174800F070
:1003A000C2FF0AB010BD10B50121144801F0ACF82D
:1003B00048B10121114801F042F91148006880F468
:1003C00080700F49086010BD0C480C30006800F0C8
:1003D000030028B10A48006880F48070084908606A
:1003E000704700F01F02012191404209920002F182
:1003F000E022C2F800117047000002400064004093
:100400001408024010B504469848844208D10121DE
:10041000084600F086FB0021012000F082FB76E018
:100420009348844208D10121022000F07AFB002188
:10043000022000F076FB6AE08E48844208D1012158
:10044000042000F06EFB0021042000F06AFB5EE057
:100450008948844208D10121082000F062FB002174
:10046000082000F05EFB52E08448844208D101215C
:10047000102000F056FB0021102000F052FB46E057
:100480007F48844208D10121202000F04AFB00214E
:10049000202000F046FB3AE07A48844208D101214E
:1004A000402000F03EFB0021402000F03AFB2EE00F
:1004B0007548844208D10121802000F032FB0021E0
:1004C000802000F02EFB22E07048844208D10121F8
:1004D000801500F026FB0021A01500F022FB16E09D
:1004E0006B48844208D10121401500F01AFB00211D
:1004F000601500F016FB0AE06648844207D101212E
:10050000001500F00EFB0021201500F00AFB10BDC5
:10051000F0B50A4600210023002400BF3DE001257C
:1005200005FA01F3156805EA03049C4234D1056815
:100530004F000326BE40B543056015794E00B54017
:100540000668354305601579012D02D01579022D15
:1005500016D185684F000326BE40B54385605579A6
:100560004E00B540866835438560456801268E405B
:10057000B5434560456896798E40B6B235434560CF
:10058000C5684F000326BE40B543C560D5794E000F
:10059000B540C6683543C560491C1029BFD3F0BDBE
:1005A0004FF6FF7101600021017141718171C171CC
:1005B000704708B54FF480320092009A0A430092C7
:1005C000009AC261C161009AC261C2690092C269A7
:1005D000009208BD0246002013690B400BB10120B8
:1005E00000E0002070470146086980B2704702466B
:1005F000002053690B400BB1012000E00020704740
:100600000146486980B27047018370474183704753
:100610000AB1018300E0418370474161704742693C
:100620004A4042617047F0B5002300244D07ED0EAB
:1006300002FA05F3CE1000F1200555F826504E07BA
:10064000F70E0F26BE40B543CF1000F1200646F846
:100650002750CE1000F1200555F8265045EA030436
:10066000CE1000F1200545F82640F0BD0000024004
:100670000004024000080240000C0240001002404A
:100680000014024000180240001C024000200240FA
:100690000024024000280240F948006840F00100B0
:1006A000F74908600020F64908310860F4480068FE
:1006B000F4490840F2490860F348091D0860F3480E
:1006C000EF4984310860F0481038091D0860EC4893
:1006D000006820F48020EA4908600020E8490C31D5
:1006E0000860E7498C31086070470021E44A921C99
:1006F000117011460870704710B5014600220023A2
:1007000000204A11012A02D1DD4C236808E0022AA8
:1007100003D1DB4C7034236802E0D94C7434236875
:1007200001F01F02012494401C400CB1012000E0A4
:10073000002010BD38B5002000900024002500BF27
:100740003120FFF7D9FF05460098401C0090009823
:10075000B0F5A04F01D0002DF2D03120FFF7CCFF33
:1007600008B1012400E00024204638BD01460020E5
:10077000C34A106820F0F80040EAC10010607047DA
:10078000C349086070470021BD4A70321170117072
:10079000012802D004280AD104E00121B84A7032AD
:1007A000117005E00521B64A7032117000E000BFFB
:1007B00000BF7047B7490860704770B5049C41EAB4
:1007C00082150126C6EB530645EA0645054345EA70
:1007D0000465AB4E361D356070BDAD490866704787
:1007E000820142EA0172A64B84331A607047A8491D
:1007F0008866704710B5830143EA016343EA0273D8
:100800009F4C8834236010BDA14908677047A049F8
:10081000C864704702460020994B0833186820F0DE
:10082000EC6042EA01031843954B083318607047A7
:1008300002460020924B0833186820F0784042EAC4
:10084000010318438E4B083318607047014600209F
:100850008B4A0832106820F003000843106070478C
:1008600087480830006800F00C00704701460020FF
:10087000834A0832106820F0F00008431060704787
:10088000014600207E4A0832106820F4E0500843F8
:100890001060704701460020794A0832106820F441
:1008A000604040EAC10010607047F0B500210022AE
:1008B0000024022500260223714F08373F6807F005
:1008C0000C0121B1042905D0082937D105E0724F68
:1008D000076036E0714F076033E0694F3F1D3F68A6
:1008E000C7F38056664F3F1D3F6807F03F036EB168
:1008F0006A4FB7FBF3F7DFF888C10CF1040CDCF8A2
:1009000000C0CCF3881C07FB0CF40CE0624FB7FB73
:10091000F3F7DFF86CC10CF1040CDCF800C0CCF389
:10092000881C07FB0CF4564F3F1D3F68C7F3014777
:100930007F1C7D00B4FBF5F7076002E0564F0760AF
:1009400000BF00BF4E4F08373F6807F0F0010909AC
:10095000534F7A5C0768D7404760494F08373F6874
:1009600007F4E051890A4E4F7A5C4768D7408760A8
:10097000434F08373F6807F46041490B484F7A5CA2
:100980004768D740C760F0BD002100F44072B2F55F
:10099000407F0AD13A4A0832116821F4F811414ADD
:1009A00002401143364A08321160354A70321268EB
:1009B000C0F30B031A43324B70331A60704735494A
:1009C00044390860704733494039086070473649F8
:1009D0000860704701460020294A8C32106820F4D4
:1009E000401008431060704701460020244A8C32B2
:1009F000106820F440000843106070470146002052
:100A00001F4A8C32106820F01F004A1E10431C4AF7
:100A10008C321060704701460020194A8C321068F1
:100A200020F4F8504A1E40EA0220154A8C32106029
:100A3000704701460020124A8C32106820F4403082
:100A400008431060704719490860704739B10C4A73
:100A50003032126802430A4B30331A6006E0084A0B
:100A6000303212688243064B30331A607047F9B156
:100A7000034A343212680243014B34331A601CE0DB
:100A800000380240FFFFF6EA10300024003000205A
:100A900000004742800E47420024F40000127A0012
:100AA00000000020FFFCFF0F5C014742E0114742BD
:100AB0008F4A126882438E4B1A60704739B18C4A54
:100AC000121D126802438A4B1B1D1A6006E0884AF9
:100AD000121D12688243864B1B1D1A60704739B184
:100AE000834A0C3212680243814B0C331A6006E0D1
:100AF0007F4A0C32126882437D4B0C331A60704778
:100B000039B17B4A103212680243794B10331A60B4
:100B100006E0774A103212688243754B10331A6030
:100B2000704739B1724A243A12680243704B243B31
:100B30001A6006E06E4A243A126882436C4B243BEA
:100B40001A60704739B16A4A203A12680243684B0A
:100B5000203B1A6006E0664A203A12688243644BE2
:100B6000203B1A60704739B1614A1C3A126802434F
:100B70005F4B1C3B1A6006E05D4A1C3A12688243D8
:100B80005B4B1C3B1A60704739B1594A143A1268E2
:100B90000243574B143B1A6006E0554A143A126858
:100BA0008243534B143B1A60704739B1504A103A94
:100BB000126802434E4B103B1A6006E04C4A103A52
:100BC000126882434A4B103B1A60704739B1484A59
:100BD0001C3212680243464B1C331A6006E0444A3A
:100BE0001C3212688243424B1C331A60704739B181
:100BF0003F4A2032126802433D4B20331A6006E020
:100C00003B4A203212688243394B20331A607047C6
:100C100039B1374A243212680243354B24331A6003
:100C200006E0334A243212688243314B24331A607F
:100C3000704739B12E4A2C32126802432C4B2C33A8
:100C40001A6006E02A4A2C3212688243284B2C3361
:100C50001A60704739B1264A303212680243244B79
:100C600030331A6006E0224A303212688243204B49
:100C700030331A607047012808D11D493C3109689A
:100C800041F008011A4A3C32116007E018493C3132
:100C9000096821F00801164A3C321160704739B1E9
:100CA000134A273A12780243114B273B1A7006E089
:100CB0000F4A273A127882430D4B273B1A70704730
:100CC0000B484030006840F08070094940310860AE
:100CD000704701460020064A283A12680A400AB1C5
:100CE000012000E000207047014926390870704754
:100CF0003438024010B50446FE48844209D101212F
:100D00004806FFF741FF00214FF00070FFF73CFF5E
:100D100008E001218806FFF737FF00214FF08060CF
:100D2000FFF732FF10BD30B50246002000231468E3
:100D300024F002041460146844F00104146000E01C
:100D40005B1C546804F001041CB94FF6FF74A34205
:100D5000F6D1546804F001040CB900206CE08C79E1
:100D6000012C04D1146844F08004146003E014687A
:100D700024F080041460CC79012C04D1146844F070
:100D80004004146003E0146824F0400414600C7AFA
:100D9000012C04D1146844F02004146003E01468AA
:100DA00024F0200414604C7A012C04D1146844F01F
:100DB0001004146003E0146824F0100414608C7AAA
:100DC000012C04D1146844F00804146003E0146892
:100DD00024F008041460CC7A012C04D1146844F087
:100DE0000404146003E0146824F0040414608C7894
:100DF000A407CD7844EA05640D7944EA05444D79A9
:100E000044EA05540D886D1E2C43D461146824F007
:100E100001041460002300E05B1C546804F001042A
:100E20001CB14FF6FF74A342F6D1546804F00104DC
:100E30000CB1002000E0012030BD10B50021837A04
:100E4000012202FA03F1AC4A126842F00102AA4BF5
:100E50001A60A94A1C3212688A43A74B1C331A60D5
:100E6000027BCAB9A44A0C3212688A43A24B0C33E3
:100E70001A604288C38842EA03439F4A4032847A18
:100E800042F834300288838842EA03439A4A403267
:100E9000847A02EBC4025360027B012A19D1964A7C
:100EA0000C3212680A43944B0C331A604288038850
:100EB00042EA0343904A4032847A42F83430C2888E
:100EC000838842EA03438C4A4032847A02EBC402AC
:100ED0005360C27A3AB9884A121D12688A43864B17
:100EE0001B1D1A6006E0844A121D12680A43824BD9
:100EF0001B1D1A60028932B97F4A143212688A4374
:100F00007D4B14331A600289012A06D17A4A1432C1
:100F100012680A43784B14331A60427B012A06D1C7
:100F2000754A1C3212680A43734B1C331A60724AAA
:100F3000126822F00102704B1A6010BD002181710D
:100F4000C171017241728172C1728170C1700321DD
:100F500001710221417101210180704766490968D0
:100F600041F00101644A11601146096843F60E72AE
:100F70009143614A11601146096841EA00211160FC
:100F80001146096821F001011160704721B1026822
:100F900042F48032026003E0026822F48032026090
:100FA0007047E1B1026842F0800202604FF4C27201
:100FB000125842F480734FF4C27213504FF4CA7245
:100FC000125842F480734FF4CA7213504FF4D27225
:100FD000125842F480734FF4D27213501BE002682F
:100FE00022F0800202604FF4C272125822F4807321
:100FF0004FF4C27213504FF4CA72125822F4807325
:101000004FF4CA7213504FF4D272125822F4807304
:101010004FF4D2721350704710B502460020936807
:1010200003F08063B3F1806F00D110E0936803F0A8
:101030000063B3F1006F01D1012008E0936803F071
:101040008053B3F1805F01D1022000E00420042826
:1010500079D002F5C07303EB00131B6803F00104A1
:1010600002F5C07303EB00131C600B7A7BB94B7A5B
:101070000C8843EA445302F5C07404EB001424685E
:10108000234302F5C07404EB0014236010E00B7AD4
:101090004C6843EAC4034C7A234302F5C07404EB62
:1010A00000142468234302F5C07404EB0014236089
:1010B0008B7A03F00F038B7202F5C07303EB0013FE
:1010C0005B6823F00F0402F5C07303EB00135C6050
:1010D00002F5C07303EB00135B688C7A234302F5BF
:1010E000C07404EB001463608B7B1C064B7B44EAEA
:1010F000034403E000640040006600400B7B44EAC8
:101100000323CC7A234302F5C07404EB0014A360DC
:101110008B7C1C064B7C44EA03440B7C44EA03238F
:10112000CC7B234302F5C07404EB0014E36002F5AA
:10113000C07303EB00131B6843F0010402F5C07396
:1011400003EB00131C6010BD10B50246002321B153
:10115000012907D002290FD109E09068F94C00EA73
:1011600004030BE09068F84C00EA040306E0906882
:10117000F64C00EA040301E0002300BF00BFF44C7A
:10118000181BA34216D007DC83B16FF080601844AF
:1011900070B1022818D111E0B0F5007F10D0ED4CED
:1011A000204448B1B0F5003F0ED10BE002230DE022
:1011B00000230BE0002309E0002307E0012305E002
:1011C000012303E0012301E0002300BF00BFD8B2E8
:1011D00010BD21B1012907D002290FD109E0826891
:1011E00042F0800282600AE0826842F4004282603B
:1011F00005E0826842F40002826000E000BF00BFA8
:10120000704710B500F5D87303EB01131B6803F0AA
:1012100004031372137A53B900F5D87303EB011367
:101220001B6840F2FF7404EA5353136009E000F5B1
:10123000D87303EB01131B686FF0604404EAD30317
:10124000536000F5D87303EB01131B6803F002032E
:10125000537200F5D87303EB01135B6803F00F03BF
:10126000937200F5D87303EB01135B681B0AD37408
:1012700000F5D87303EB01139B68D37200F5D873A4
:1012800003EB01139B681C0A147300F5D87303EB7E
:1012900001139B681C0C547300F5D87303EB011306
:1012A0009B681B0E937300F5D87303EB0113DB6887
:1012B000D37300F5D87303EB0113DB681C0A1474B5
:1012C00000F5D87303EB0113DB681C0C547400F5B4
:1012D000D87303EB0113DB681B0E937421B9C36849
:1012E00043F02003C36003E0036943F0200303617C
:1012F00010BD21B9C26842F02002C26003E0026959
:1013000042F02002026170470246002019B9D368FA
:1013100003F0030006E0012903D1136903F0030081
:1013200000E00020704710B502460B4600204FF643
:10133000FF71BBB9146824F0020444F00104146086
:1013400000E0491E546804F00304012C01D0002978
:10135000F7D1546804F00304012C01D0002032E0DE
:10136000012030E0012B13D1146824F00304146031
:1013700000E0491E546804F003040CB10029F8D1C0
:10138000546804F003040CB100201CE001201AE0B2
:10139000022B17D1146824F0010444F002041460F5
:1013A00000E0491E546804F00304022C01D0002917
:1013B000F7D1546804F00304022C01D0002002E0AD
:1013C000012000E0002010BD014600200A6822F044
:1013D000010242F002020A604A6802F00302022A95
:1013E00000D10120704701464FF6FF7200200B68C4
:1013F00023F002030B6000E0521E4B6803F002036F
:10140000022B01D1002AF7D14B6803F00203022B13
:1014100000D001207047014600208A6902F0700068
:101420007047014600208A69100E7047014600206F
:101430008A69C2F3074070471AB143690B4343619D
:1014400002E043698B434361704710B502460020B8
:1014500001F4700343B19369C1F3130423400BB14A
:1014600001202DE000202BE001F0807343B1536890
:10147000C1F3130423400BB1012021E000201FE041
:1014800001F0006343B19368C1F3130423400BB12F
:10149000012015E0002013E001F0007343B1D36890
:1014A000C1F3130423400BB1012009E0002007E041
:1014B0001369C1F3130423400BB1012000E00020A5
:1014C00010BD0022244B994202D10023836111E018
:1014D000C1F3130201F000730BB1C2600AE001F026
:1014E00080630BB1026105E001F000630BB1826023
:1014F00000E0426070470246002002EA01030BB19F
:10150000012000E00020704770B504460D4600261B
:1015100060692840002872D0B5F5807F69D01DDC55
:10152000082D42D006DC012D2DD0022D31D0042D06
:101530007FD134E0102D3ED0202D42D0402D78D1E7
:1015400045E0000003000004000300080000031051
:10155000000100080001FFF77000F030B5F5004F02
:1015600061D009DCB5F5007F4AD0B5F5806F4DD06C
:10157000B5F5006F5DD150E0B5F5803F2DD0B5F5E4
:10158000003F56D12FE0A0685549FFF7B4FF06464B
:1015900051E0E0680321FFF7AEFF06464BE0E0684C
:1015A0000821FFF7A8FF064645E0E0681021FFF795
:1015B000A2FF06463FE020690321FFF79CFF064695
:1015C00039E020690821FFF796FF064633E02069DD
:1015D0001021FFF790FF06462DE060680821FFF715
:1015E0008AFF064627E060681021FFF784FF064661
:1015F00021E0A0690121FFF77EFF06461BE01BE00A
:10160000A0690221FFF777FF064614E0A0690421D4
:10161000FFF771FF06460EE00BE0A0697021FFF7AF
:101620006AFF064607E060680421FFF764FF06468C
:1016300001E0002600BF00E00026304670BDB1F595
:10164000007F3AD00FDC202928D006DC01291CD0ED
:1016500004291DD0082940D11DE0402921D0B1F531
:10166000807F3AD126E0B1F5004F31D006DCB1F5EC
:10167000806F25D0B1F5006F2FD124E0B1F5803F08
:1016800012D0B1F5003F28D111E0154A826025E063
:101690000822C26022E01022C2601FE0082202611C
:1016A0001CE01022026119E00822426016E01022BC
:1016B000426013E00422426010E0042242600DE028
:1016C000042242600AE0002282610422426005E0B6
:1016D000002282610422426000E000BF00BF704728
:1016E000010101000948804709480047FEE7FEE77D
:1016F000FEE7FEE7FEE7FEE7FEE7FEE7FEE7FEE7C2
:1017000004480549054A064B7047000025170008A4
:101710008901000888000020880600208802002037
:10172000880200203F48006840F470003D4908608E
:101730003D48006840F001003B49086000203A49FC
:101740000831086038480068384908403649086060
:101750003748091D0860081F006820F48020091F11
:101760000860002030490C3108604FF000602D49BE
:1017700080390860704770B50020002202230024E1
:101780000221294D08352D6805F00C0020B10428F0
:1017900006D0082834D107E0264D274E356033E0C7
:1017A000264D254E35602FE01F4D2D1D2D68C5F3AC
:1017B00080541D4D2D1D2D6805F03F0154B11F4D66
:1017C000B5FBF1F5184E361D3668C6F3881605FBD5
:1017D00006F209E0174DB5FBF1F5134E361D3668DC
:1017E000C6F3881605FB06F20F4D2D1D2D68C5F3B7
:1017F00001456D1C6B00B2FBF3F50F4E356003E045
:101800000C4D0D4E356000BF00BF074D08352D68EB
:10181000C5F303150A4E705D074D2D68C540064E91
:10182000356070BD88ED00E000380240FFFFF6FE35
:10183000103000240024F4001000002000127A0070
:1018400014000020704770477047754600F028F874
:10185000AE4605006946534620F00700854618B09D
:1018600020B5FFF74DFFBDE820404FF000064FF0D8
:1018700000074FF000084FF0000B21F00701AC46C5
:10188000ACE8C009ACE8C009ACE8C009ACE8C009E4
:101890008D4670470446AFF300802046FEF7BDFC3E
:1018A000004870472400002001491820ABBEFEE725
:1018B0002600020070474FF04070E1EE100A7047BA
:1018C000E01800080000002024000000C401000807
:1018D000041900082400002064060000E00100084C
:1018E00000000000010203040102030406070809C6
:1018F0000024F400000000000000000001020304C6
:0419000006070809C5
:04000005080016E5F4
:00000001FF
